:100000000C9462000C948A000C948A000C948A0070
:100010000C948A000C948A000C948A000C948A0038
:100020000C948A000C948A000C948A000C948A0028
:100030000C948A000C948A000C948A000C948A0018
:100040000C9425070C948A000C94CC020C941E038B
:100050000C948A000C948A000C948A000C948A00F8
:100060000C948A000C948A000000000024002700F1
:100070002A0000000000250028002B0000000000DE
:1000800023002600290004040404040404040202DA
:100090000202020203030303030301020408102007
:1000A0004080010204081020010204081020000012
:1000B0000007000201000003040600000000000029
:1000C00000008D0411241FBECFEFD8E0DEBFCDBFEE
:1000D00011E0A0E0B1E0E2E8F0E102C005900D928D
:1000E000A632B107D9F711E0A6E2B1E001C01D9236
:1000F000AD3DB107E1F710E0C4ECD0E004C02297B9
:10010000FE010E943B08C23CD107C9F70E94E404EB
:100110000C943F080C9400009C0125503040223084
:10012000310530F08930910519F08A30910579F563
:1001300060347105C1F06134710544F461307105BA
:1001400081F06830710509F056C009C081E0603067
:10015000780759F06050744009F04DC008C092E033
:1001600007C091E005C093E003C094E001C095E0B2
:100170002230310528F485B5887F982B95BD0895E8
:1001800080918100887F982B90938100089583301F
:10019000910511F00B9779F560347105F9F0613430
:1001A000710554F46830710599F060327105A1F061
:1001B0006130710501F50EC081E06030780791F083
:1001C00084E06030780781F060387105A1F408C0E0
:1001D00092E00BC091E009C093E007C094E005C035
:1001E00095E003C096E001C097E08091B100887F60
:1001F000982B9093B1000895AF92BF92CF92DF9267
:10020000EF92FF920F931F93809110010E94B6010D
:10021000909327018093260100D000D0AA2797FD54
:10022000A095BA2F2FEF30E040E050E0EDB7FEB7D9
:100230002183328343835483BC01CD0120E030E02D
:1002400040E050E0EFEFEE2EE3E0FE2E012D112D09
:10025000AA24BB2465010E94DC06709329016093E7
:1002600028010F900F900F900F9082EB91E00E9469
:10027000E003892B09F45BC082EB91E00E94D80671
:100280007B018C018B0182EB91E060E071E00E94C8
:100290001E0682EB91E0B7014AE050E00E94FF05A4
:1002A0000130110539F4809112019091130161E040
:1002B00070E03BC00230110539F480911201909139
:1002C000130168E070E031C00330110539F480910A
:1002D00012019091130160E270E027C00430110513
:1002E00039F4809112019091130160E470E01DC017
:1002F0000530110539F4809112019091130160E8E5
:1003000070E013C00630110539F48091120190910C
:10031000130160E071E009C00730110541F48091DC
:1003200012019091130160E074E00E948C006091D2
:10033000280170912901809112010E94D8011F911A
:100340000F91FF90EF90DF90CF90BF90AF90089506
:100350008091120161E00E94380282EB91E040E856
:1003600055E260E070E00E9459030895982F8E30A6
:1003700008F09E509770809114018295880F880F25
:10038000807C892B80937C0080917A0080648093AC
:100390007A0080917A0086FDFCCF20917800409110
:1003A0007900942F80E030E0282B392BC901089583
:1003B0001F93CF93DF93182FEB0161E00E94380267
:1003C000209709F44AC0CF3FD10509F449C0E12F75
:1003D000F0E0E255FF4F84918330C1F0843028F47F
:1003E000813051F08230B1F50CC0863019F1873080
:1003F00049F1843079F514C084B5806884BDC7BDE7
:1004000033C084B5806284BDC8BD2EC08091800099
:10041000806880938000D0938900C093880024C0B6
:1004200080918000806280938000D0938B00C09385
:100430008A001AC08091B00080688093B000C09399
:10044000B30012C08091B00080628093B000C0936E
:10045000B4000AC0C038D1051CF4812F60E002C08E
:10046000812F61E00E947702DF91CF911F91089563
:10047000CF93DF93482F50E0CA0186569F4FFC016F
:1004800034914A575F4FFA018491882369F190E0D3
:10049000880F991FFC01E859FF4FA591B491FC0109
:1004A000EE58FF4FC591D491662351F42FB7F894BD
:1004B0008C91932F909589238C93888189230BC0ED
:1004C000623061F42FB7F8948C91932F9095892323
:1004D0008C938881832B88832FBF06C09FB7F894A5
:1004E0008C91832B8C939FBFDF91CF910895482FE0
:1004F00050E0CA0182559F4FFC012491CA018656E3
:100500009F4FFC0194914A575F4FFA013491332376
:1005100009F440C0222351F1233071F0243028F433
:100520002130A1F0223011F514C02630B1F027306F
:10053000C1F02430D9F404C0809180008F7703C0CB
:10054000809180008F7D8093800010C084B58F776C
:1005500002C084B58F7D84BD09C08091B0008F77C3
:1005600003C08091B0008F7D8093B000E32FF0E056
:10057000EE0FFF1FEE58FF4FA591B4912FB7F894DF
:10058000662321F48C919095892302C08C91892B4C
:100590008C932FBF089508951F920F920FB60F925C
:1005A00011242F933F934F938F939F93EF93FF9338
:1005B0008091C00082FD1DC04091C60020916A015B
:1005C00030916B012F5F3F4F2F73307080916C0122
:1005D00090916D012817390771F0E0916A01F0914F
:1005E0006B01E65DFE4F408330936B0120936A01FF
:1005F00002C08091C600FF91EF919F918F914F9122
:100600003F912F910F900FBE0F901F901895E09182
:10061000BE01F091BF01E05CFF4F8191919120817B
:100620003181805C9F4F821B930B60E470E00E94DD
:10063000D507892B11F00E94CB0208951F920F92CB
:100640000FB60F9211242F933F938F939F93EF93A5
:10065000FF932091AE013091AF018091B001909154
:10066000B1012817390731F48091C1008F7D809343
:10067000C10014C0E091B001F091B101E259FE4F08
:1006800020818091B0019091B10101968F7390709B
:100690009093B1018093B0012093C600FF91EF9138
:1006A0009F918F913F912F910F900FBE0F901F90B0
:1006B0001895AF92BF92DF92EF92FF920F931F9324
:1006C000CF93DF93EC017A018B01DD24403081EE82
:1006D000580780E0680780E0780711F0DD24D394A4
:1006E00091E0A92EB12CEC89FD89DD2069F0C501CE
:1006F00008A002C0880F991F0A94E2F7808360E087
:1007000079E08DE390E005C0108260E874E88EE146
:1007100090E0A80197010E94E80721503040404036
:100720005040569547953795279580E120303807FA
:1007300020F0DD2011F0DD24D6CFE889F98930835F
:10074000EA89FB89208319A2EE89FF89408121E093
:1007500030E0C9010C8C02C0880F991F0A94E2F79F
:10076000482B4083EE89FF894081C9010D8C02C06E
:10077000880F991F0A94E2F7482B4083EE89FF897E
:100780004081C9010E8C02C0880F991F0A94E2F7BC
:10079000482B4083EE89FF8980810F8C02C0220F95
:1007A000331F0A94E2F7209528232083DF91CF910D
:1007B0001F910F91FF90EF90DF90BF90AF90089541
:1007C000DC011C96ED91FC911D97E05CFF4F81913F
:1007D000919120813181805C9F4F821B930B60E45B
:1007E00070E00E94D5070895DC011C96ED91FC9104
:1007F0001D97E05CFF4F20813181E054F040DF0124
:10080000AE5BBF4F8D919C9111972817390719F452
:100810002FEF3FEF07C08D919C91E80FF91F80816A
:10082000282F30E0C9010895DC011C96ED91FC9160
:100830001D97E05CFF4F20813181E054F040DF01E3
:10084000AE5BBF4F8D919C9111972817390719F412
:100850002FEF3FEF10C08D919C911197E80FF91F7A
:1008600020818D919C91119701968F7390701196B4
:100870009C938E9330E0C9010895DC0191968C9190
:100880009197882339F05496ED91FC91559780818A
:1008900086FFF9CF91961C920895CF93DF93EC01D8
:1008A000EE85FF85E05CFF4F20813181E054F04010
:1008B0002F5F3F4F2F733070DF01AE5BBF4F8D91C5
:1008C0009C91119728173907D1F3E05CFF4F808185
:1008D0009181E054F040E80FF91F6083EE85FF85B9
:1008E000E05CFF4F31832083EE89FF89208181E026
:1008F00090E00F8C02C0880F991F0A94E2F7282B12
:10090000208381E089A3EC89FD89808180648083D4
:1009100081E090E0DF91CF9108951092B50110929F
:10092000B40188EE93E0A0E0B0E08093B60190932C
:10093000B701A093B801B093B90189E191E0909318
:10094000B3018093B2018AE291E09093BF0180935A
:10095000BE018EE691E09093C1018093C00185ECC9
:1009600090E09093C3018093C20184EC90E0909357
:10097000C5018093C40180EC90E09093C7018093FF
:10098000C60181EC90E09093C9018093C80182EC8C
:1009900090E09093CB018093CA0186EC90E0909315
:1009A000CD018093CC0184E08093CE0183E08093DD
:1009B000CF0187E08093D00185E08093D10181E071
:1009C0008093D20108950895CF93DF930E947B070F
:1009D0000E94E3040E94A801C7E0D3E00E94FC004B
:1009E0002097E1F30E940703F9CFCF92DF92EF92B5
:1009F000FF920F931F93CF93DF937C016B018A01CA
:100A0000C0E0D0E00FC0D6016D916D01D701ED912E
:100A1000FC910190F081E02DC7010995C80FD91F05
:100A2000015010400115110571F7CE01DF91CF91F2
:100A30001F910F91FF90EF90DF90CF900895EF926C
:100A4000FF920F931F938C01DC01ED91FC910190BB
:100A5000F081E02D6DE009957C01D801ED91FC91CC
:100A60000190F081E02DC8016AE009959C012E0DEE
:100A70003F1DC9011F910F91FF90EF900895CF93F3
:100A8000DF93EC016115710519F420E030E00FC02F
:100A9000DB010D900020E9F71197A61BB70BE88149
:100AA000F9810280F381E02DAD0109959C01C90116
:100AB000DF91CF9108954F925F927F928F929F9294
:100AC000AF92BF92CF92DF92EF92FF920F931F935C
:100AD000DF93CF93CDB7DEB7A1970FB6F894DEBF03
:100AE0000FBECDBF2C01742ECB01223008F42AE0BA
:100AF00019A231E2C32ED12CCC0EDD1E822E9924F8
:100B0000AA24BB24672D752FA50194010E94E80734
:100B100079018A01C801B701A50194010E94B607B5
:100B2000472D461B0894C108D1084A3014F4405D93
:100B300001C0495CF6014083E114F104010511058F
:100B400021F07E2C5F2DC801DDCFC201B6010E94CD
:100B50003F05A1960FB6F894DEBF0FBECDBFCF9173
:100B6000DF911F910F91FF90EF90DF90CF90BF909A
:100B7000AF909F908F907F905F904F900895CF920D
:100B8000DF92EF92FF920F931F93CF93DF93EC01CD
:100B90006A017B012115310541F4E881F981019059
:100BA000F081E02D642F09951FC02A303105D1F462
:100BB00077FF17C0E881F9810190F081E02D6DE2A7
:100BC00009958C0144275527BA014C195D096E0916
:100BD0007F09CE012AE00E945B059801280F391F8A
:100BE00004C02AE00E945B059C01C901DF91CF91FE
:100BF0001F910F91FF90EF90DF90CF900895CF92CB
:100C0000DF92EF92FF920F931F936C017B019A0189
:100C10000027F7FC0095102FB801A7010E94BF051F
:100C20008C01C6010E941F05080F191FC8011F91E2
:100C30000F91FF90EF90DF90CF9008950E943F05B5
:100C40000895CF93DF93EC010E946D076887798741
:100C50008A879B87E881F9810084F185E02DCE01A8
:100C600009959C0197FF15C00E946D07288539855D
:100C70004A855B85621B730B840B950B2C813D8130
:100C80004E815F81621773078407950718F32FEF72
:100C90003FEFC901DF91CF910895CF93DF93EC012E
:100CA000CE010E9421069C0197FD0EC08D32910558
:100CB00059F0C0970A9740F0E881F9810680F781E2
:100CC000E02DCE010995ECCFC901DF91CF910895B8
:100CD0009F92AF92BF92CF92DF92EF92FF920F93CB
:100CE0001F93CF93DF936C01B62E0E944D06EC014B
:100CF00097FF04C0EE24FF2487014CC09924EE2402
:100D0000FF248701AB2CBB24A7FCB094CA15DB05DC
:100D100029F1CD32D10519F4992493941FC0CE0145
:100D2000C0970A97D8F4C801B7012AE030E040E044
:100D300050E00E94B6077B018C01CE01AA2797FDE7
:100D4000A095BA2FE80EF91E0A1F1B1F80ED9FEF1A
:100D5000AFEFBFEFE80EF91E0A1F1B1FD601ED9182
:100D6000FC910680F781E02DC6010995C6010E941D
:100D70002106EC01C0970A9748F2CA15DB0531F24B
:100D8000992041F010950095F094E094E11CF11C3D
:100D9000011D111DB701C801DF91CF911F910F9166
:100DA000FF90EF90DF90CF90BF90AF909F9008950D
:100DB00061E00E94680608952F923F924F925F92E1
:100DC0006F927F928F929F92AF92BF92CF92DF925B
:100DD000EF92FF920F931F93DF93CF93CDB7DEB7C0
:100DE0003B014C0119012A016D897E898F89988DFB
:100DF0006A197B098C099D09621A730A840A950A8B
:100E0000A40193010E94B607E218F308040915092A
:100E1000A80197010E940A082A0D3B1D4C1D5D1D6B
:100E2000B901CA01CF91DF911F910F91FF90EF900F
:100E3000DF90CF90BF90AF909F908F907F906F90FA
:100E40005F904F903F902F9008951F920F920FB692
:100E50000F9211242F933F938F939F93AF93BF9340
:100E60008091D8019091D901A091DA01B091DB0174
:100E70003091DC010196A11DB11D232F2D5F2D376F
:100E800020F02D570196A11DB11D2093DC01809308
:100E9000D8019093D901A093DA01B093DB0180913E
:100EA000D4019091D501A091D601B091D7010196BE
:100EB000A11DB11D8093D4019093D501A093D601BB
:100EC000B093D701BF91AF919F918F913F912F9197
:100ED0000F900FBE0F901F9018958FB7F894209128
:100EE000D8013091D9014091DA015091DB018FBFD7
:100EF000B901CA010895789484B5826084BD84B52F
:100F0000816084BD85B5826085BD85B5816085BD04
:100F1000EEE6F0E0808181608083E1E8F0E010821D
:100F2000808182608083808181608083E0E8F0E05E
:100F3000808181608083E1EBF0E080818460808348
:100F4000E0EBF0E0808181608083EAE7F0E080817F
:100F500084608083808182608083808181608083DF
:100F60008081806880831092C1000895629FD001C3
:100F7000739FF001829FE00DF11D649FE00DF11D54
:100F8000929FF00D839FF00D749FF00D659FF00D03
:100F90009927729FB00DE11DF91F639FB00DE11DF0
:100FA000F91FBD01CF011124089597FB092E0726D3
:100FB0000AD077FD04D049D006D000201AF47095ED
:100FC00061957F4F0895F6F7909581959F4F08950D
:100FD000A1E21A2EAA1BBB1BFD010DC0AA1FBB1F3D
:100FE000EE1FFF1FA217B307E407F50720F0A21BAF
:100FF000B30BE40BF50B661F771F881F991F1A941C
:1010000069F760957095809590959B01AC01BD0145
:10101000CF01089597FB092E05260ED057FD04D069
:10102000D7DF0AD0001C38F45095409530952195B3
:101030003F4F4F4F5F4F0895F6F79095809570950D
:1010400061957F4F8F4F9F4F0895AA1BBB1B51E1A6
:1010500007C0AA1FBB1FA617B70710F0A61BB70B28
:10106000881F991F5A95A9F780959095BC01CD01CD
:101070000895EE0FFF1F0590F491E02D0994F89468
:02108000FFCFA0
:101082004672657175656E6379206D6F64653A00AD
:101092000E00030001000000004D04F504E00314FB
:0610A20004F4033D04000C
:00000001FF
